{
  "contractName": "RckToken",
  "abi": [
    {
      "constant": true,
      "inputs": [],
      "name": "totalSupply",
      "outputs": [
        {
          "name": "",
          "type": "uint256"
        }
      ],
      "payable": false,
      "stateMutability": "view",
      "type": "function"
    },
    {
      "inputs": [],
      "payable": false,
      "stateMutability": "nonpayable",
      "type": "constructor"
    }
  ],
  "bytecode": "0x608060405234801561001057600080fd5b506305f5e100600081905550609e8061002a6000396000f300608060405260043610603f576000357c0100000000000000000000000000000000000000000000000000000000900463ffffffff16806318160ddd146044575b600080fd5b348015604f57600080fd5b506056606c565b6040518082815260200191505060405180910390f35b600054815600a165627a7a72305820a688c93d0c5e6e8a5fb1cf16ec792b56aa0dedfecf14d0ece4401724eafb0eef0029",
  "source": "pragma solidity^0.4.2;\r\n\r\ncontract RckToken {\r\n\t//Constructor\r\n\t//Setting up the total no of tokens\r\n\t//Reading the no of tokens\r\n\r\n    //Variables\r\n\r\n    uint256 public totalSupply;\r\n\r\n\tfunction RckToken() public{\r\n\t\ttotalSupply = 100000000;\r\n\t}\r\n}",
  "sourcePath": "C:\\Users\\SRRC\\Desktop\\HO\\token_sale\\contracts\\RckToken.sol",
  "compiler": {
    "name": "solc",
    "version": "0.4.24+commit.e67f0147.Emscripten.clang"
  },
  "schemaVersion": "2.0.1",
  "updatedAt": "2018-06-24T20:14:57.959Z"
}